{
  "contractName": "LandRegistry",
  "abi": [
    {
      "inputs": [],
      "stateMutability": "nonpayable",
      "type": "constructor"
    },
    {
      "anonymous": false,
      "inputs": [
        {
          "indexed": true,
          "internalType": "address",
          "name": "owner",
          "type": "address"
        },
        {
          "indexed": true,
          "internalType": "address",
          "name": "approved",
          "type": "address"
        },
        {
          "indexed": true,
          "internalType": "uint256",
          "name": "tokenId",
          "type": "uint256"
        }
      ],
      "name": "Approval",
      "type": "event"
    },
    {
      "anonymous": false,
      "inputs": [
        {
          "indexed": true,
          "internalType": "address",
          "name": "owner",
          "type": "address"
        },
        {
          "indexed": true,
          "internalType": "address",
          "name": "operator",
          "type": "address"
        },
        {
          "indexed": false,
          "internalType": "bool",
          "name": "approved",
          "type": "bool"
        }
      ],
      "name": "ApprovalForAll",
      "type": "event"
    },
    {
      "anonymous": false,
      "inputs": [
        {
          "indexed": true,
          "internalType": "uint256",
          "name": "landId",
          "type": "uint256"
        },
        {
          "indexed": true,
          "internalType": "address",
          "name": "bidder",
          "type": "address"
        },
        {
          "indexed": false,
          "internalType": "uint256",
          "name": "amount",
          "type": "uint256"
        }
      ],
      "name": "BidPlaced",
      "type": "event"
    },
    {
      "anonymous": false,
      "inputs": [
        {
          "indexed": true,
          "internalType": "uint256",
          "name": "landId",
          "type": "uint256"
        },
        {
          "indexed": true,
          "internalType": "address",
          "name": "complainant",
          "type": "address"
        },
        {
          "indexed": false,
          "internalType": "string",
          "name": "reason",
          "type": "string"
        }
      ],
      "name": "DisputeRaised",
      "type": "event"
    },
    {
      "anonymous": false,
      "inputs": [
        {
          "indexed": true,
          "internalType": "uint256",
          "name": "landId",
          "type": "uint256"
        }
      ],
      "name": "DisputeResolved",
      "type": "event"
    },
    {
      "anonymous": false,
      "inputs": [
        {
          "indexed": true,
          "internalType": "uint256",
          "name": "landId",
          "type": "uint256"
        },
        {
          "indexed": true,
          "internalType": "address",
          "name": "lessee",
          "type": "address"
        },
        {
          "indexed": false,
          "internalType": "uint256",
          "name": "leaseEnd",
          "type": "uint256"
        },
        {
          "indexed": false,
          "internalType": "uint256",
          "name": "rent",
          "type": "uint256"
        }
      ],
      "name": "LandLeased",
      "type": "event"
    },
    {
      "anonymous": false,
      "inputs": [
        {
          "indexed": true,
          "internalType": "uint256",
          "name": "landId",
          "type": "uint256"
        },
        {
          "indexed": false,
          "internalType": "uint256",
          "name": "price",
          "type": "uint256"
        }
      ],
      "name": "LandListedForSale",
      "type": "event"
    },
    {
      "anonymous": false,
      "inputs": [
        {
          "indexed": true,
          "internalType": "uint256",
          "name": "landId",
          "type": "uint256"
        },
        {
          "indexed": false,
          "internalType": "string",
          "name": "ownerName",
          "type": "string"
        },
        {
          "indexed": false,
          "internalType": "string",
          "name": "location",
          "type": "string"
        },
        {
          "indexed": false,
          "internalType": "uint256",
          "name": "area",
          "type": "uint256"
        },
        {
          "indexed": true,
          "internalType": "address",
          "name": "owner",
          "type": "address"
        }
      ],
      "name": "LandRegistered",
      "type": "event"
    },
    {
      "anonymous": false,
      "inputs": [
        {
          "indexed": true,
          "internalType": "uint256",
          "name": "landId",
          "type": "uint256"
        },
        {
          "indexed": true,
          "internalType": "address",
          "name": "oldOwner",
          "type": "address"
        },
        {
          "indexed": true,
          "internalType": "address",
          "name": "newOwner",
          "type": "address"
        }
      ],
      "name": "OwnershipTransferred",
      "type": "event"
    },
    {
      "anonymous": false,
      "inputs": [
        {
          "indexed": true,
          "internalType": "address",
          "name": "previousOwner",
          "type": "address"
        },
        {
          "indexed": true,
          "internalType": "address",
          "name": "newOwner",
          "type": "address"
        }
      ],
      "name": "OwnershipTransferred",
      "type": "event"
    },
    {
      "anonymous": false,
      "inputs": [
        {
          "indexed": true,
          "internalType": "uint256",
          "name": "landId",
          "type": "uint256"
        },
        {
          "indexed": true,
          "internalType": "address",
          "name": "buyer",
          "type": "address"
        },
        {
          "indexed": false,
          "internalType": "uint256",
          "name": "price",
          "type": "uint256"
        }
      ],
      "name": "SaleFinalized",
      "type": "event"
    },
    {
      "anonymous": false,
      "inputs": [
        {
          "indexed": true,
          "internalType": "address",
          "name": "from",
          "type": "address"
        },
        {
          "indexed": true,
          "internalType": "address",
          "name": "to",
          "type": "address"
        },
        {
          "indexed": true,
          "internalType": "uint256",
          "name": "tokenId",
          "type": "uint256"
        }
      ],
      "name": "Transfer",
      "type": "event"
    },
    {
      "inputs": [
        {
          "internalType": "address",
          "name": "to",
          "type": "address"
        },
        {
          "internalType": "uint256",
          "name": "tokenId",
          "type": "uint256"
        }
      ],
      "name": "approve",
      "outputs": [],
      "stateMutability": "nonpayable",
      "type": "function"
    },
    {
      "inputs": [
        {
          "internalType": "address",
          "name": "owner",
          "type": "address"
        }
      ],
      "name": "balanceOf",
      "outputs": [
        {
          "internalType": "uint256",
          "name": "",
          "type": "uint256"
        }
      ],
      "stateMutability": "view",
      "type": "function",
      "constant": true
    },
    {
      "inputs": [
        {
          "internalType": "uint256",
          "name": "",
          "type": "uint256"
        }
      ],
      "name": "disputes",
      "outputs": [
        {
          "internalType": "address",
          "name": "complainant",
          "type": "address"
        },
        {
          "internalType": "string",
          "name": "reason",
          "type": "string"
        },
        {
          "internalType": "bool",
          "name": "resolved",
          "type": "bool"
        }
      ],
      "stateMutability": "view",
      "type": "function",
      "constant": true
    },
    {
      "inputs": [
        {
          "internalType": "uint256",
          "name": "tokenId",
          "type": "uint256"
        }
      ],
      "name": "getApproved",
      "outputs": [
        {
          "internalType": "address",
          "name": "",
          "type": "address"
        }
      ],
      "stateMutability": "view",
      "type": "function",
      "constant": true
    },
    {
      "inputs": [
        {
          "internalType": "address",
          "name": "owner",
          "type": "address"
        },
        {
          "internalType": "address",
          "name": "operator",
          "type": "address"
        }
      ],
      "name": "isApprovedForAll",
      "outputs": [
        {
          "internalType": "bool",
          "name": "",
          "type": "bool"
        }
      ],
      "stateMutability": "view",
      "type": "function",
      "constant": true
    },
    {
      "inputs": [
        {
          "internalType": "uint256",
          "name": "",
          "type": "uint256"
        }
      ],
      "name": "lands",
      "outputs": [
        {
          "internalType": "uint256",
          "name": "id",
          "type": "uint256"
        },
        {
          "internalType": "string",
          "name": "ownerName",
          "type": "string"
        },
        {
          "internalType": "string",
          "name": "location",
          "type": "string"
        },
        {
          "internalType": "uint256",
          "name": "area",
          "type": "uint256"
        },
        {
          "internalType": "address",
          "name": "owner",
          "type": "address"
        },
        {
          "internalType": "bool",
          "name": "registered",
          "type": "bool"
        },
        {
          "internalType": "uint256",
          "name": "price",
          "type": "uint256"
        },
        {
          "internalType": "bool",
          "name": "isForSale",
          "type": "bool"
        },
        {
          "internalType": "bool",
          "name": "isMortgaged",
          "type": "bool"
        },
        {
          "internalType": "string",
          "name": "geoTag",
          "type": "string"
        },
        {
          "internalType": "uint256",
          "name": "leaseExpiry",
          "type": "uint256"
        }
      ],
      "stateMutability": "view",
      "type": "function",
      "constant": true
    },
    {
      "inputs": [
        {
          "internalType": "uint256",
          "name": "",
          "type": "uint256"
        }
      ],
      "name": "leases",
      "outputs": [
        {
          "internalType": "address",
          "name": "lessee",
          "type": "address"
        },
        {
          "internalType": "uint256",
          "name": "leaseEnd",
          "type": "uint256"
        },
        {
          "internalType": "uint256",
          "name": "rent",
          "type": "uint256"
        }
      ],
      "stateMutability": "view",
      "type": "function",
      "constant": true
    },
    {
      "inputs": [],
      "name": "name",
      "outputs": [
        {
          "internalType": "string",
          "name": "",
          "type": "string"
        }
      ],
      "stateMutability": "view",
      "type": "function",
      "constant": true
    },
    {
      "inputs": [],
      "name": "owner",
      "outputs": [
        {
          "internalType": "address",
          "name": "",
          "type": "address"
        }
      ],
      "stateMutability": "view",
      "type": "function",
      "constant": true
    },
    {
      "inputs": [
        {
          "internalType": "uint256",
          "name": "tokenId",
          "type": "uint256"
        }
      ],
      "name": "ownerOf",
      "outputs": [
        {
          "internalType": "address",
          "name": "",
          "type": "address"
        }
      ],
      "stateMutability": "view",
      "type": "function",
      "constant": true
    },
    {
      "inputs": [
        {
          "internalType": "uint256",
          "name": "",
          "type": "uint256"
        },
        {
          "internalType": "uint256",
          "name": "",
          "type": "uint256"
        }
      ],
      "name": "ownershipHistory",
      "outputs": [
        {
          "internalType": "address",
          "name": "",
          "type": "address"
        }
      ],
      "stateMutability": "view",
      "type": "function",
      "constant": true
    },
    {
      "inputs": [],
      "name": "renounceOwnership",
      "outputs": [],
      "stateMutability": "nonpayable",
      "type": "function"
    },
    {
      "inputs": [
        {
          "internalType": "address",
          "name": "from",
          "type": "address"
        },
        {
          "internalType": "address",
          "name": "to",
          "type": "address"
        },
        {
          "internalType": "uint256",
          "name": "tokenId",
          "type": "uint256"
        }
      ],
      "name": "safeTransferFrom",
      "outputs": [],
      "stateMutability": "nonpayable",
      "type": "function"
    },
    {
      "inputs": [
        {
          "internalType": "address",
          "name": "from",
          "type": "address"
        },
        {
          "internalType": "address",
          "name": "to",
          "type": "address"
        },
        {
          "internalType": "uint256",
          "name": "tokenId",
          "type": "uint256"
        },
        {
          "internalType": "bytes",
          "name": "_data",
          "type": "bytes"
        }
      ],
      "name": "safeTransferFrom",
      "outputs": [],
      "stateMutability": "nonpayable",
      "type": "function"
    },
    {
      "inputs": [
        {
          "internalType": "address",
          "name": "operator",
          "type": "address"
        },
        {
          "internalType": "bool",
          "name": "approved",
          "type": "bool"
        }
      ],
      "name": "setApprovalForAll",
      "outputs": [],
      "stateMutability": "nonpayable",
      "type": "function"
    },
    {
      "inputs": [
        {
          "internalType": "bytes4",
          "name": "interfaceId",
          "type": "bytes4"
        }
      ],
      "name": "supportsInterface",
      "outputs": [
        {
          "internalType": "bool",
          "name": "",
          "type": "bool"
        }
      ],
      "stateMutability": "view",
      "type": "function",
      "constant": true
    },
    {
      "inputs": [],
      "name": "symbol",
      "outputs": [
        {
          "internalType": "string",
          "name": "",
          "type": "string"
        }
      ],
      "stateMutability": "view",
      "type": "function",
      "constant": true
    },
    {
      "inputs": [
        {
          "internalType": "uint256",
          "name": "tokenId",
          "type": "uint256"
        }
      ],
      "name": "tokenURI",
      "outputs": [
        {
          "internalType": "string",
          "name": "",
          "type": "string"
        }
      ],
      "stateMutability": "view",
      "type": "function",
      "constant": true
    },
    {
      "inputs": [
        {
          "internalType": "address",
          "name": "from",
          "type": "address"
        },
        {
          "internalType": "address",
          "name": "to",
          "type": "address"
        },
        {
          "internalType": "uint256",
          "name": "tokenId",
          "type": "uint256"
        }
      ],
      "name": "transferFrom",
      "outputs": [],
      "stateMutability": "nonpayable",
      "type": "function"
    },
    {
      "inputs": [
        {
          "internalType": "address",
          "name": "",
          "type": "address"
        },
        {
          "internalType": "uint256",
          "name": "",
          "type": "uint256"
        }
      ],
      "name": "userLands",
      "outputs": [
        {
          "internalType": "uint256",
          "name": "",
          "type": "uint256"
        }
      ],
      "stateMutability": "view",
      "type": "function",
      "constant": true
    },
    {
      "inputs": [
        {
          "internalType": "uint256",
          "name": "_landId",
          "type": "uint256"
        },
        {
          "internalType": "string",
          "name": "_ownerName",
          "type": "string"
        },
        {
          "internalType": "string",
          "name": "_location",
          "type": "string"
        },
        {
          "internalType": "uint256",
          "name": "_area",
          "type": "uint256"
        },
        {
          "internalType": "string",
          "name": "_geoTag",
          "type": "string"
        },
        {
          "internalType": "string",
          "name": "_tokenURI",
          "type": "string"
        }
      ],
      "name": "registerLand",
      "outputs": [],
      "stateMutability": "nonpayable",
      "type": "function"
    },
    {
      "inputs": [
        {
          "internalType": "uint256",
          "name": "_id",
          "type": "uint256"
        },
        {
          "internalType": "address",
          "name": "_newOwner",
          "type": "address"
        }
      ],
      "name": "transferOwnership",
      "outputs": [],
      "stateMutability": "nonpayable",
      "type": "function"
    },
    {
      "inputs": [
        {
          "internalType": "address",
          "name": "newOwner",
          "type": "address"
        }
      ],
      "name": "transferOwnership",
      "outputs": [],
      "stateMutability": "nonpayable",
      "type": "function"
    },
    {
      "inputs": [
        {
          "internalType": "uint256",
          "name": "_id",
          "type": "uint256"
        },
        {
          "internalType": "address",
          "name": "_lessee",
          "type": "address"
        },
        {
          "internalType": "uint256",
          "name": "_duration",
          "type": "uint256"
        },
        {
          "internalType": "uint256",
          "name": "_rent",
          "type": "uint256"
        }
      ],
      "name": "leaseLand",
      "outputs": [],
      "stateMutability": "nonpayable",
      "type": "function"
    },
    {
      "inputs": [
        {
          "internalType": "uint256",
          "name": "_id",
          "type": "uint256"
        },
        {
          "internalType": "string",
          "name": "_reason",
          "type": "string"
        }
      ],
      "name": "raiseDispute",
      "outputs": [],
      "stateMutability": "nonpayable",
      "type": "function"
    },
    {
      "inputs": [
        {
          "internalType": "uint256",
          "name": "_id",
          "type": "uint256"
        }
      ],
      "name": "resolveDispute",
      "outputs": [],
      "stateMutability": "nonpayable",
      "type": "function"
    },
    {
      "inputs": [
        {
          "internalType": "uint256",
          "name": "_id",
          "type": "uint256"
        },
        {
          "internalType": "uint256",
          "name": "_price",
          "type": "uint256"
        }
      ],
      "name": "listLandForSale",
      "outputs": [],
      "stateMutability": "nonpayable",
      "type": "function"
    },
    {
      "inputs": [
        {
          "internalType": "uint256",
          "name": "_id",
          "type": "uint256"
        }
      ],
      "name": "buyLand",
      "outputs": [],
      "stateMutability": "payable",
      "type": "function",
      "payable": true
    },
    {
      "inputs": [
        {
          "internalType": "uint256",
          "name": "_id",
          "type": "uint256"
        }
      ],
      "name": "placeBid",
      "outputs": [],
      "stateMutability": "payable",
      "type": "function",
      "payable": true
    },
    {
      "inputs": [
        {
          "internalType": "uint256",
          "name": "_id",
          "type": "uint256"
        }
      ],
      "name": "getLandDetails",
      "outputs": [
        {
          "components": [
            {
              "internalType": "uint256",
              "name": "id",
              "type": "uint256"
            },
            {
              "internalType": "string",
              "name": "ownerName",
              "type": "string"
            },
            {
              "internalType": "string",
              "name": "location",
              "type": "string"
            },
            {
              "internalType": "uint256",
              "name": "area",
              "type": "uint256"
            },
            {
              "internalType": "address",
              "name": "owner",
              "type": "address"
            },
            {
              "internalType": "bool",
              "name": "registered",
              "type": "bool"
            },
            {
              "internalType": "uint256",
              "name": "price",
              "type": "uint256"
            },
            {
              "internalType": "bool",
              "name": "isForSale",
              "type": "bool"
            },
            {
              "internalType": "bool",
              "name": "isMortgaged",
              "type": "bool"
            },
            {
              "internalType": "string",
              "name": "geoTag",
              "type": "string"
            },
            {
              "internalType": "uint256",
              "name": "leaseExpiry",
              "type": "uint256"
            }
          ],
          "internalType": "struct LandRegistry.Land",
          "name": "",
          "type": "tuple"
        }
      ],
      "stateMutability": "view",
      "type": "function",
      "constant": true
    },
    {
      "inputs": [
        {
          "internalType": "uint256",
          "name": "_id",
          "type": "uint256"
        }
      ],
      "name": "getOwnershipHistory",
      "outputs": [
        {
          "internalType": "address[]",
          "name": "",
          "type": "address[]"
        }
      ],
      "stateMutability": "view",
      "type": "function",
      "constant": true
    },
    {
      "inputs": [
        {
          "internalType": "address",
          "name": "_user",
          "type": "address"
        }
      ],
      "name": "getUserLands",
      "outputs": [
        {
          "internalType": "uint256[]",
          "name": "",
          "type": "uint256[]"
        }
      ],
      "stateMutability": "view",
      "type": "function",
      "constant": true
    }
  ],
  "bytecode": "0x60806040523480156200001157600080fd5b506040518060400160405280600f81526020017f4c616e6452656769737472794e465400000000000000000000000000000000008152506040518060400160405280600481526020017f4c414e440000000000000000000000000000000000000000000000000000000081525081600090805190602001906200009692919062000171565b508060019080519060200190620000af92919062000171565b5050506000620000c46200016960201b60201c565b905080600760006101000a81548173ffffffffffffffffffffffffffffffffffffffff021916908373ffffffffffffffffffffffffffffffffffffffff1602179055508073ffffffffffffffffffffffffffffffffffffffff16600073ffffffffffffffffffffffffffffffffffffffff167f8be0079c531659141344cd1fd0a4f28419497f9722a3daafe3b4186f6b6457e060405160405180910390a35062000286565b600033905090565b8280546200017f9062000221565b90600052602060002090601f016020900481019282620001a35760008555620001ef565b82601f10620001be57805160ff1916838001178555620001ef565b82800160010185558215620001ef579182015b82811115620001ee578251825591602001919060010190620001d1565b5b509050620001fe919062000202565b5090565b5b808211156200021d57600081600090555060010162000203565b5090565b600060028204905060018216806200023a57607f821691505b6020821081141562000251576200025062000257565b5b50919050565b7f4e487b7100000000000000000000000000000000000000000000000000000000600052602260045260246000fd5b61563f80620002966000396000f3fe6080604052600436106101e35760003560e01c806395d89b4111610102578063dc219adc11610095578063f1dbaccb11610064578063f1dbaccb1461073c578063f2fde38b14610779578063fd1a8fef146107a2578063fe0cb7dc146107cb576101e3565b8063dc219adc14610652578063e261f1e51461068f578063e985e9c5146106d6578063ebb7cc6614610713576101e3565b8063c2b7b868116100d1578063c2b7b86814610593578063c87b56dd146105bc578063c9cf2adc146105f9578063ced3955814610636576101e3565b806395d89b41146104fa5780639979ef4514610525578063a22cb46514610541578063b88d4fde1461056a576101e3565b8063564a565d1161017a57806370a082311161014957806370a082311461043c578063715018a6146104795780638927a106146104905780638da5cb5b146104cf576101e3565b8063564a565d1461036e5780635aef573c146103ad5780635edad516146103d65780636352211e146103ff576101e3565b806323b872dd116101b657806323b872dd146102b657806328bf5ef5146102df57806329507f731461031c57806342842e0e14610345576101e3565b806301ffc9a7146101e857806306fdde0314610225578063081812fc14610250578063095ea7b31461028d575b600080fd5b3480156101f457600080fd5b5061020f600480360381019061020a9190613ae3565b610808565b60405161021c919061458a565b60405180910390f35b34801561023157600080fd5b5061023a6108ea565b60405161024791906145a5565b60405180910390f35b34801561025c57600080fd5b5061027760048036038101906102729190613b35565b61097c565b604051610284919061446a565b60405180910390f35b34801561029957600080fd5b506102b460048036038101906102af9190613aa7565b610a01565b005b3480156102c257600080fd5b506102dd60048036038101906102d891906139a1565b610b19565b005b3480156102eb57600080fd5b506103066004803603810190610301919061393c565b610b79565b6040516103139190614568565b60405180910390f35b34801561032857600080fd5b50610343600480360381019061033e9190613b5e565b610c10565b005b34801561035157600080fd5b5061036c600480360381019061036791906139a1565b610f40565b005b34801561037a57600080fd5b5061039560048036038101906103909190613b35565b610f60565b6040516103a4939291906144d1565b60405180910390f35b3480156103b957600080fd5b506103d460048036038101906103cf9190613bfd565b61103f565b005b3480156103e257600080fd5b506103fd60048036038101906103f89190613c51565b611160565b005b34801561040b57600080fd5b5061042660048036038101906104219190613b35565b61153b565b604051610433919061446a565b60405180910390f35b34801561044857600080fd5b50610463600480360381019061045e919061393c565b6115ed565b604051610470919061498e565b60405180910390f35b34801561048557600080fd5b5061048e6116a5565b005b34801561049c57600080fd5b506104b760048036038101906104b29190613b35565b6117e2565b6040516104c69392919061450f565b60405180910390f35b3480156104db57600080fd5b506104e461182c565b6040516104f1919061446a565b60405180910390f35b34801561050657600080fd5b5061050f611856565b60405161051c91906145a5565b60405180910390f35b61053f600480360381019061053a9190613b35565b6118e8565b005b34801561054d57600080fd5b5061056860048036038101906105639190613a6b565b611a10565b005b34801561057657600080fd5b50610591600480360381019061058c91906139f0565b611b91565b005b34801561059f57600080fd5b506105ba60048036038101906105b59190613b35565b611bf3565b005b3480156105c857600080fd5b506105e360048036038101906105de9190613b35565b611d32565b6040516105f091906145a5565b60405180910390f35b34801561060557600080fd5b50610620600480360381019061061b9190613d3a565b611e84565b60405161062d919061446a565b60405180910390f35b610650600480360381019061064b9190613b35565b611ed2565b005b34801561065e57600080fd5b5061067960048036038101906106749190613aa7565b6120b8565b604051610686919061498e565b60405180910390f35b34801561069b57600080fd5b506106b660048036038101906106b19190613b35565b6120e9565b6040516106cd9b9a999897969594939291906149a9565b60405180910390f35b3480156106e257600080fd5b506106fd60048036038101906106f89190613965565b612322565b60405161070a919061458a565b60405180910390f35b34801561071f57600080fd5b5061073a60048036038101906107359190613b9a565b6123b6565b005b34801561074857600080fd5b50610763600480360381019061075e9190613b35565b612563565b6040516107709190614546565b60405180910390f35b34801561078557600080fd5b506107a0600480360381019061079b919061393c565b612604565b005b3480156107ae57600080fd5b506107c960048036038101906107c49190613d3a565b6127b0565b005b3480156107d757600080fd5b506107f260048036038101906107ed9190613b35565b6128ae565b6040516107ff919061496c565b60405180910390f35b60007f80ac58cd000000000000000000000000000000000000000000000000000000007bffffffffffffffffffffffffffffffffffffffffffffffffffffffff1916827bffffffffffffffffffffffffffffffffffffffffffffffffffffffff191614806108d357507f5b5e139f000000000000000000000000000000000000000000000000000000007bffffffffffffffffffffffffffffffffffffffffffffffffffffffff1916827bffffffffffffffffffffffffffffffffffffffffffffffffffffffff1916145b806108e357506108e282612b61565b5b9050919050565b6060600080546108f990614d50565b80601f016020809104026020016040519081016040528092919081815260200182805461092590614d50565b80156109725780601f1061094757610100808354040283529160200191610972565b820191906000526020600020905b81548152906001019060200180831161095557829003601f168201915b5050505050905090565b600061098782612bcb565b6109c6576040517f08c379a00000000000000000000000000000000000000000000000000000000081526004016109bd9061486c565b60405180910390fd5b6004600083815260200190815260200160002060009054906101000a900473ffffffffffffffffffffffffffffffffffffffff169050919050565b6000610a0c8261153b565b90508073ffffffffffffffffffffffffffffffffffffffff168373ffffffffffffffffffffffffffffffffffffffff161415610a7d576040517f08c379a0000000000000000000000000000000000000000000000000000000008152600401610a749061490c565b60405180910390fd5b8073ffffffffffffffffffffffffffffffffffffffff16610a9c612c37565b73ffffffffffffffffffffffffffffffffffffffff161480610acb5750610aca81610ac5612c37565b612322565b5b610b0a576040517f08c379a0000000000000000000000000000000000000000000000000000000008152600401610b019061478c565b60405180910390fd5b610b148383612c3f565b505050565b610b2a610b24612c37565b82612cf8565b610b69576040517f08c379a0000000000000000000000000000000000000000000000000000000008152600401610b609061492c565b60405180910390fd5b610b74838383612dd6565b505050565b6060600d60008373ffffffffffffffffffffffffffffffffffffffff1673ffffffffffffffffffffffffffffffffffffffff168152602001908152602001600020805480602002602001604051908101604052809291908181526020018280548015610c0457602002820191906000526020600020905b815481526020019060010190808311610bf0575b50505050509050919050565b813373ffffffffffffffffffffffffffffffffffffffff16610c318261153b565b73ffffffffffffffffffffffffffffffffffffffff1614610c87576040517f08c379a0000000000000000000000000000000000000000000000000000000008152600401610c7e9061494c565b60405180910390fd5b6009600084815260200190815260200160002060040160149054906101000a900460ff16610cea576040517f08c379a0000000000000000000000000000000000000000000000000000000008152600401610ce19061460c565b60405180910390fd5b6009600084815260200190815260200160002060060160019054906101000a900460ff1615610d4e576040517f08c379a0000000000000000000000000000000000000000000000000000000008152600401610d459061470c565b60405180910390fd5b60096000848152602001908152602001600020600801544211610da6576040517f08c379a0000000000000000000000000000000000000000000000000000000008152600401610d9d9061476c565b60405180910390fd5b610db1338385612dd6565b816009600085815260200190815260200160002060040160006101000a81548173ffffffffffffffffffffffffffffffffffffffff021916908373ffffffffffffffffffffffffffffffffffffffff160217905550600a6000848152602001908152602001600020829080600181540180825580915050600190039060005260206000200160009091909190916101000a81548173ffffffffffffffffffffffffffffffffffffffff021916908373ffffffffffffffffffffffffffffffffffffffff160217905550600d60008373ffffffffffffffffffffffffffffffffffffffff1673ffffffffffffffffffffffffffffffffffffffff1681526020019081526020016000208390806001815401808255809150506001900390600052602060002001600090919091909150558173ffffffffffffffffffffffffffffffffffffffff163373ffffffffffffffffffffffffffffffffffffffff16847f16b85f49bf01212961345d3016c9a531894accf62eb7680f2045d79185cc0ec060405160405180910390a4505050565b610f5b83838360405180602001604052806000815250611b91565b505050565b600c6020528060005260406000206000915090508060000160009054906101000a900473ffffffffffffffffffffffffffffffffffffffff1690806001018054610fa990614d50565b80601f0160208091040260200160405190810160405280929190818152602001828054610fd590614d50565b80156110225780601f10610ff757610100808354040283529160200191611022565b820191906000526020600020905b81548152906001019060200180831161100557829003601f168201915b5050505050908060020160009054906101000a900460ff16905083565b60405180606001604052803373ffffffffffffffffffffffffffffffffffffffff16815260200182815260200160001515815250600c600084815260200190815260200160002060008201518160000160006101000a81548173ffffffffffffffffffffffffffffffffffffffff021916908373ffffffffffffffffffffffffffffffffffffffff16021790555060208201518160010190805190602001906110e99291906136ea565b5060408201518160020160006101000a81548160ff0219169083151502179055509050503373ffffffffffffffffffffffffffffffffffffffff16827f1b84372106d77c6daea0dda35bbc0229d10a83f58ec8990928849251936823418360405161115491906145a5565b60405180910390a35050565b611168612c37565b73ffffffffffffffffffffffffffffffffffffffff1661118661182c565b73ffffffffffffffffffffffffffffffffffffffff16146111dc576040517f08c379a00000000000000000000000000000000000000000000000000000000081526004016111d3906148ac565b60405180910390fd5b600015156009600088815260200190815260200160002060040160149054906101000a900460ff16151514611246576040517f08c379a000000000000000000000000000000000000000000000000000000000815260040161123d9061474c565b60405180910390fd5b6040518061016001604052808781526020018681526020018581526020018481526020013373ffffffffffffffffffffffffffffffffffffffff168152602001600115158152602001600081526020016000151581526020016000151581526020018381526020016000815250600960008881526020019081526020016000206000820151816000015560208201518160010190805190602001906112ec9291906136ea565b5060408201518160020190805190602001906113099291906136ea565b506060820151816003015560808201518160040160006101000a81548173ffffffffffffffffffffffffffffffffffffffff021916908373ffffffffffffffffffffffffffffffffffffffff16021790555060a08201518160040160146101000a81548160ff02191690831515021790555060c0820151816005015560e08201518160060160006101000a81548160ff0219169083151502179055506101008201518160060160016101000a81548160ff0219169083151502179055506101208201518160070190805190602001906113e39291906136ea565b5061014082015181600801559050506113fc3387613032565b6114068682613200565b600a6000878152602001908152602001600020339080600181540180825580915050600190039060005260206000200160009091909190916101000a81548173ffffffffffffffffffffffffffffffffffffffff021916908373ffffffffffffffffffffffffffffffffffffffff160217905550600d60003373ffffffffffffffffffffffffffffffffffffffff1673ffffffffffffffffffffffffffffffffffffffff1681526020019081526020016000208690806001815401808255809150506001900390600052602060002001600090919091909150553373ffffffffffffffffffffffffffffffffffffffff16867fe82ee38c4fa57ca51af3f2b0f73dd24d9ef27fb933bb0aa915b1a5f3a0bea6fa87878760405161152b939291906145c7565b60405180910390a3505050505050565b6000806002600084815260200190815260200160002060009054906101000a900473ffffffffffffffffffffffffffffffffffffffff169050600073ffffffffffffffffffffffffffffffffffffffff168173ffffffffffffffffffffffffffffffffffffffff1614156115e4576040517f08c379a00000000000000000000000000000000000000000000000000000000081526004016115db906147cc565b60405180910390fd5b80915050919050565b60008073ffffffffffffffffffffffffffffffffffffffff168273ffffffffffffffffffffffffffffffffffffffff16141561165e576040517f08c379a0000000000000000000000000000000000000000000000000000000008152600401611655906147ac565b60405180910390fd5b600360008373ffffffffffffffffffffffffffffffffffffffff1673ffffffffffffffffffffffffffffffffffffffff168152602001908152602001600020549050919050565b6116ad612c37565b73ffffffffffffffffffffffffffffffffffffffff166116cb61182c565b73ffffffffffffffffffffffffffffffffffffffff1614611721576040517f08c379a0000000000000000000000000000000000000000000000000000000008152600401611718906148ac565b60405180910390fd5b600073ffffffffffffffffffffffffffffffffffffffff16600760009054906101000a900473ffffffffffffffffffffffffffffffffffffffff1673ffffffffffffffffffffffffffffffffffffffff167f8be0079c531659141344cd1fd0a4f28419497f9722a3daafe3b4186f6b6457e060405160405180910390a36000600760006101000a81548173ffffffffffffffffffffffffffffffffffffffff021916908373ffffffffffffffffffffffffffffffffffffffff160217905550565b600b6020528060005260406000206000915090508060000160009054906101000a900473ffffffffffffffffffffffffffffffffffffffff16908060010154908060020154905083565b6000600760009054906101000a900473ffffffffffffffffffffffffffffffffffffffff16905090565b60606001805461186590614d50565b80601f016020809104026020016040519081016040528092919081815260200182805461189190614d50565b80156118de5780601f106118b3576101008083540402835291602001916118de565b820191906000526020600020905b8154815290600101906020018083116118c157829003601f168201915b5050505050905090565b6009600082815260200190815260200160002060060160009054906101000a900460ff1661194b576040517f08c379a00000000000000000000000000000000000000000000000000000000081526004016119429061462c565b60405180910390fd5b600960008281526020019081526020016000206005015434116119a3576040517f08c379a000000000000000000000000000000000000000000000000000000000815260040161199a9061488c565b60405180910390fd5b3460096000838152602001908152602001600020600501819055503373ffffffffffffffffffffffffffffffffffffffff16817f0e54eff26401bf69b81b26f60bd85ef47f5d85275c1d268d84f68d6897431c4734604051611a05919061498e565b60405180910390a350565b611a18612c37565b73ffffffffffffffffffffffffffffffffffffffff168273ffffffffffffffffffffffffffffffffffffffff161415611a86576040517f08c379a0000000000000000000000000000000000000000000000000000000008152600401611a7d906146ec565b60405180910390fd5b8060056000611a93612c37565b73ffffffffffffffffffffffffffffffffffffffff1673ffffffffffffffffffffffffffffffffffffffff16815260200190815260200160002060008473ffffffffffffffffffffffffffffffffffffffff1673ffffffffffffffffffffffffffffffffffffffff16815260200190815260200160002060006101000a81548160ff0219169083151502179055508173ffffffffffffffffffffffffffffffffffffffff16611b40612c37565b73ffffffffffffffffffffffffffffffffffffffff167f17307eab39ab6107e8899845ad3d59bd9653f200f220920489ca2b5937696c3183604051611b85919061458a565b60405180910390a35050565b611ba2611b9c612c37565b83612cf8565b611be1576040517f08c379a0000000000000000000000000000000000000000000000000000000008152600401611bd89061492c565b60405180910390fd5b611bed84848484613274565b50505050565b611bfb612c37565b73ffffffffffffffffffffffffffffffffffffffff16611c1961182c565b73ffffffffffffffffffffffffffffffffffffffff1614611c6f576040517f08c379a0000000000000000000000000000000000000000000000000000000008152600401611c66906148ac565b60405180910390fd5b600c600082815260200190815260200160002060020160009054906101000a900460ff1615611cd3576040517f08c379a0000000000000000000000000000000000000000000000000000000008152600401611cca9061468c565b60405180910390fd5b6001600c600083815260200190815260200160002060020160006101000a81548160ff021916908315150217905550807f57cce005d496355471bb5269f1dea3d6c81b6ac14c1d74ba28aefb022357013b60405160405180910390a250565b6060611d3d82612bcb565b611d7c576040517f08c379a0000000000000000000000000000000000000000000000000000000008152600401611d739061484c565b60405180910390fd5b6000600660008481526020019081526020016000208054611d9c90614d50565b80601f0160208091040260200160405190810160405280929190818152602001828054611dc890614d50565b8015611e155780601f10611dea57610100808354040283529160200191611e15565b820191906000526020600020905b815481529060010190602001808311611df857829003601f168201915b505050505090506000611e266132d0565b9050600081511415611e3c578192505050611e7f565b600082511115611e71578082604051602001611e59929190614446565b60405160208183030381529060405292505050611e7f565b611e7a846132e7565b925050505b919050565b600a6020528160005260406000208181548110611ea057600080fd5b906000526020600020016000915091509054906101000a900473ffffffffffffffffffffffffffffffffffffffff1681565b6009600082815260200190815260200160002060060160009054906101000a900460ff16611f35576040517f08c379a0000000000000000000000000000000000000000000000000000000008152600401611f2c9061462c565b60405180910390fd5b6009600082815260200190815260200160002060050154341015611f8e576040517f08c379a0000000000000000000000000000000000000000000000000000000008152600401611f859061482c565b60405180910390fd5b60006009600083815260200190815260200160002060040160009054906101000a900473ffffffffffffffffffffffffffffffffffffffff1690508073ffffffffffffffffffffffffffffffffffffffff166108fc349081150290604051600060405180830381858888f1935050505015801561200f573d6000803e3d6000fd5b5060006009600084815260200190815260200160002060060160006101000a81548160ff021916908315150217905550600060096000848152602001908152602001600020600501819055506120658233610c10565b3373ffffffffffffffffffffffffffffffffffffffff16827f0b70c506c6b04f07fd1f7c282105c1f68bd263c007b2119415e18df8be50bf0a346040516120ac919061498e565b60405180910390a35050565b600d60205281600052604060002081815481106120d457600080fd5b90600052602060002001600091509150505481565b600960205280600052604060002060009150905080600001549080600101805461211290614d50565b80601f016020809104026020016040519081016040528092919081815260200182805461213e90614d50565b801561218b5780601f106121605761010080835404028352916020019161218b565b820191906000526020600020905b81548152906001019060200180831161216e57829003601f168201915b5050505050908060020180546121a090614d50565b80601f01602080910402602001604051908101604052809291908181526020018280546121cc90614d50565b80156122195780601f106121ee57610100808354040283529160200191612219565b820191906000526020600020905b8154815290600101906020018083116121fc57829003601f168201915b5050505050908060030154908060040160009054906101000a900473ffffffffffffffffffffffffffffffffffffffff16908060040160149054906101000a900460ff16908060050154908060060160009054906101000a900460ff16908060060160019054906101000a900460ff169080600701805461229990614d50565b80601f01602080910402602001604051908101604052809291908181526020018280546122c590614d50565b80156123125780601f106122e757610100808354040283529160200191612312565b820191906000526020600020905b8154815290600101906020018083116122f557829003601f168201915b505050505090806008015490508b565b6000600560008473ffffffffffffffffffffffffffffffffffffffff1673ffffffffffffffffffffffffffffffffffffffff16815260200190815260200160002060008373ffffffffffffffffffffffffffffffffffffffff1673ffffffffffffffffffffffffffffffffffffffff16815260200190815260200160002060009054906101000a900460ff16905092915050565b833373ffffffffffffffffffffffffffffffffffffffff166123d78261153b565b73ffffffffffffffffffffffffffffffffffffffff161461242d576040517f08c379a00000000000000000000000000000000000000000000000000000000081526004016124249061494c565b60405180910390fd5b60405180606001604052808573ffffffffffffffffffffffffffffffffffffffff16815260200184426124609190614bdf565b815260200183815250600b600087815260200190815260200160002060008201518160000160006101000a81548173ffffffffffffffffffffffffffffffffffffffff021916908373ffffffffffffffffffffffffffffffffffffffff160217905550602082015181600101556040820151816002015590505082426124e69190614bdf565b60096000878152602001908152602001600020600801819055508373ffffffffffffffffffffffffffffffffffffffff16857f51b4cd95eea5132d6cc2c792f87b9cc7b59c67a333cba4b682c4fd54c0fda3c585426125459190614bdf565b85604051612554929190614a69565b60405180910390a35050505050565b6060600a60008381526020019081526020016000208054806020026020016040519081016040528092919081815260200182805480156125f857602002820191906000526020600020905b8160009054906101000a900473ffffffffffffffffffffffffffffffffffffffff1673ffffffffffffffffffffffffffffffffffffffff16815260200190600101908083116125ae575b50505050509050919050565b61260c612c37565b73ffffffffffffffffffffffffffffffffffffffff1661262a61182c565b73ffffffffffffffffffffffffffffffffffffffff1614612680576040517f08c379a0000000000000000000000000000000000000000000000000000000008152600401612677906148ac565b60405180910390fd5b600073ffffffffffffffffffffffffffffffffffffffff168173ffffffffffffffffffffffffffffffffffffffff1614156126f0576040517f08c379a00000000000000000000000000000000000000000000000000000000081526004016126e79061466c565b60405180910390fd5b8073ffffffffffffffffffffffffffffffffffffffff16600760009054906101000a900473ffffffffffffffffffffffffffffffffffffffff1673ffffffffffffffffffffffffffffffffffffffff167f8be0079c531659141344cd1fd0a4f28419497f9722a3daafe3b4186f6b6457e060405160405180910390a380600760006101000a81548173ffffffffffffffffffffffffffffffffffffffff021916908373ffffffffffffffffffffffffffffffffffffffff16021790555050565b813373ffffffffffffffffffffffffffffffffffffffff166127d18261153b565b73ffffffffffffffffffffffffffffffffffffffff1614612827576040517f08c379a000000000000000000000000000000000000000000000000000000000815260040161281e9061494c565b60405180910390fd5b60016009600085815260200190815260200160002060060160006101000a81548160ff021916908315150217905550816009600085815260200190815260200160002060050181905550827fdea5c3193c68e6199b356e0ceac7970d0951be96d03378b29dbaf40b6e2f4334836040516128a1919061498e565b60405180910390a2505050565b6128b6613770565b6009600083815260200190815260200160002060405180610160016040529081600082015481526020016001820180546128ef90614d50565b80601f016020809104026020016040519081016040528092919081815260200182805461291b90614d50565b80156129685780601f1061293d57610100808354040283529160200191612968565b820191906000526020600020905b81548152906001019060200180831161294b57829003601f168201915b5050505050815260200160028201805461298190614d50565b80601f01602080910402602001604051908101604052809291908181526020018280546129ad90614d50565b80156129fa5780601f106129cf576101008083540402835291602001916129fa565b820191906000526020600020905b8154815290600101906020018083116129dd57829003601f168201915b50505050508152602001600382015481526020016004820160009054906101000a900473ffffffffffffffffffffffffffffffffffffffff1673ffffffffffffffffffffffffffffffffffffffff1673ffffffffffffffffffffffffffffffffffffffff1681526020016004820160149054906101000a900460ff16151515158152602001600582015481526020016006820160009054906101000a900460ff161515151581526020016006820160019054906101000a900460ff16151515158152602001600782018054612ace90614d50565b80601f0160208091040260200160405190810160405280929190818152602001828054612afa90614d50565b8015612b475780601f10612b1c57610100808354040283529160200191612b47565b820191906000526020600020905b815481529060010190602001808311612b2a57829003601f168201915b505050505081526020016008820154815250509050919050565b60007f01ffc9a7000000000000000000000000000000000000000000000000000000007bffffffffffffffffffffffffffffffffffffffffffffffffffffffff1916827bffffffffffffffffffffffffffffffffffffffffffffffffffffffff1916149050919050565b60008073ffffffffffffffffffffffffffffffffffffffff166002600084815260200190815260200160002060009054906101000a900473ffffffffffffffffffffffffffffffffffffffff1673ffffffffffffffffffffffffffffffffffffffff1614159050919050565b600033905090565b816004600083815260200190815260200160002060006101000a81548173ffffffffffffffffffffffffffffffffffffffff021916908373ffffffffffffffffffffffffffffffffffffffff160217905550808273ffffffffffffffffffffffffffffffffffffffff16612cb28361153b565b73ffffffffffffffffffffffffffffffffffffffff167f8c5be1e5ebec7d5bd14f71427d1e84f3dd0314c0f7b2291e5b200ac8c7c3b92560405160405180910390a45050565b6000612d0382612bcb565b612d42576040517f08c379a0000000000000000000000000000000000000000000000000000000008152600401612d399061472c565b60405180910390fd5b6000612d4d8361153b565b90508073ffffffffffffffffffffffffffffffffffffffff168473ffffffffffffffffffffffffffffffffffffffff161480612dbc57508373ffffffffffffffffffffffffffffffffffffffff16612da48461097c565b73ffffffffffffffffffffffffffffffffffffffff16145b80612dcd5750612dcc8185612322565b5b91505092915050565b8273ffffffffffffffffffffffffffffffffffffffff16612df68261153b565b73ffffffffffffffffffffffffffffffffffffffff1614612e4c576040517f08c379a0000000000000000000000000000000000000000000000000000000008152600401612e43906148cc565b60405180910390fd5b600073ffffffffffffffffffffffffffffffffffffffff168273ffffffffffffffffffffffffffffffffffffffff161415612ebc576040517f08c379a0000000000000000000000000000000000000000000000000000000008152600401612eb3906146cc565b60405180910390fd5b612ec783838361338e565b612ed2600082612c3f565b6001600360008573ffffffffffffffffffffffffffffffffffffffff1673ffffffffffffffffffffffffffffffffffffffff1681526020019081526020016000206000828254612f229190614c66565b925050819055506001600360008473ffffffffffffffffffffffffffffffffffffffff1673ffffffffffffffffffffffffffffffffffffffff1681526020019081526020016000206000828254612f799190614bdf565b92505081905550816002600083815260200190815260200160002060006101000a81548173ffffffffffffffffffffffffffffffffffffffff021916908373ffffffffffffffffffffffffffffffffffffffff160217905550808273ffffffffffffffffffffffffffffffffffffffff168473ffffffffffffffffffffffffffffffffffffffff167fddf252ad1be2c89b69c2b068fc378daa952ba7f163c4a11628f55a4df523b3ef60405160405180910390a4505050565b600073ffffffffffffffffffffffffffffffffffffffff168273ffffffffffffffffffffffffffffffffffffffff1614156130a2576040517f08c379a00000000000000000000000000000000000000000000000000000000081526004016130999061480c565b60405180910390fd5b6130ab81612bcb565b156130eb576040517f08c379a00000000000000000000000000000000000000000000000000000000081526004016130e2906146ac565b60405180910390fd5b6130f76000838361338e565b6001600360008473ffffffffffffffffffffffffffffffffffffffff1673ffffffffffffffffffffffffffffffffffffffff16815260200190815260200160002060008282546131479190614bdf565b92505081905550816002600083815260200190815260200160002060006101000a81548173ffffffffffffffffffffffffffffffffffffffff021916908373ffffffffffffffffffffffffffffffffffffffff160217905550808273ffffffffffffffffffffffffffffffffffffffff16600073ffffffffffffffffffffffffffffffffffffffff167fddf252ad1be2c89b69c2b068fc378daa952ba7f163c4a11628f55a4df523b3ef60405160405180910390a45050565b61320982612bcb565b613248576040517f08c379a000000000000000000000000000000000000000000000000000000000815260040161323f906147ec565b60405180910390fd5b8060066000848152602001908152602001600020908051906020019061326f9291906136ea565b505050565b61327f848484612dd6565b61328b84848484613393565b6132ca576040517f08c379a00000000000000000000000000000000000000000000000000000000081526004016132c19061464c565b60405180910390fd5b50505050565b606060405180602001604052806000815250905090565b60606132f282612bcb565b613331576040517f08c379a0000000000000000000000000000000000000000000000000000000008152600401613328906148ec565b60405180910390fd5b600061333b6132d0565b9050600081511161335b5760405180602001604052806000815250613386565b806133658461352a565b604051602001613376929190614446565b6040516020818303038152906040525b915050919050565b505050565b60006133b48473ffffffffffffffffffffffffffffffffffffffff166136d7565b1561351d578373ffffffffffffffffffffffffffffffffffffffff1663150b7a026133dd612c37565b8786866040518563ffffffff1660e01b81526004016133ff9493929190614485565b602060405180830381600087803b15801561341957600080fd5b505af192505050801561344a57506040513d601f19601f820116820180604052508101906134479190613b0c565b60015b6134cd573d806000811461347a576040519150601f19603f3d011682016040523d82523d6000602084013e61347f565b606091505b506000815114156134c5576040517f08c379a00000000000000000000000000000000000000000000000000000000081526004016134bc9061464c565b60405180910390fd5b805181602001fd5b63150b7a0260e01b7bffffffffffffffffffffffffffffffffffffffffffffffffffffffff1916817bffffffffffffffffffffffffffffffffffffffffffffffffffffffff191614915050613522565b600190505b949350505050565b60606000821415613572576040518060400160405280600181526020017f300000000000000000000000000000000000000000000000000000000000000081525090506136d2565b600082905060005b600082146135a457808061358d90614db3565b915050600a8261359d9190614c35565b915061357a565b60008167ffffffffffffffff8111156135e6577f4e487b7100000000000000000000000000000000000000000000000000000000600052604160045260246000fd5b6040519080825280601f01601f1916602001820160405280156136185781602001600182028036833780820191505090505b5090505b600085146136cb576001826136319190614c66565b9150600a856136409190614dfc565b603061364c9190614bdf565b60f81b818381518110613688577f4e487b7100000000000000000000000000000000000000000000000000000000600052603260045260246000fd5b60200101907effffffffffffffffffffffffffffffffffffffffffffffffffffffffffffff1916908160001a905350600a856136c49190614c35565b945061361c565b8093505050505b919050565b600080823b905060008111915050919050565b8280546136f690614d50565b90600052602060002090601f016020900481019282613718576000855561375f565b82601f1061373157805160ff191683800117855561375f565b8280016001018555821561375f579182015b8281111561375e578251825591602001919060010190613743565b5b50905061376c91906137e6565b5090565b60405180610160016040528060008152602001606081526020016060815260200160008152602001600073ffffffffffffffffffffffffffffffffffffffff1681526020016000151581526020016000815260200160001515815260200160001515815260200160608152602001600081525090565b5b808211156137ff5760008160009055506001016137e7565b5090565b600061381661381184614ab7565b614a92565b90508281526020810184848401111561382e57600080fd5b613839848285614d0e565b509392505050565b600061385461384f84614ae8565b614a92565b90508281526020810184848401111561386c57600080fd5b613877848285614d0e565b509392505050565b60008135905061388e816155ad565b92915050565b6000813590506138a3816155c4565b92915050565b6000813590506138b8816155db565b92915050565b6000815190506138cd816155db565b92915050565b600082601f8301126138e457600080fd5b81356138f4848260208601613803565b91505092915050565b600082601f83011261390e57600080fd5b813561391e848260208601613841565b91505092915050565b600081359050613936816155f2565b92915050565b60006020828403121561394e57600080fd5b600061395c8482850161387f565b91505092915050565b6000806040838503121561397857600080fd5b60006139868582860161387f565b92505060206139978582860161387f565b9150509250929050565b6000806000606084860312156139b657600080fd5b60006139c48682870161387f565b93505060206139d58682870161387f565b92505060406139e686828701613927565b9150509250925092565b60008060008060808587031215613a0657600080fd5b6000613a148782880161387f565b9450506020613a258782880161387f565b9350506040613a3687828801613927565b925050606085013567ffffffffffffffff811115613a5357600080fd5b613a5f878288016138d3565b91505092959194509250565b60008060408385031215613a7e57600080fd5b6000613a8c8582860161387f565b9250506020613a9d85828601613894565b9150509250929050565b60008060408385031215613aba57600080fd5b6000613ac88582860161387f565b9250506020613ad985828601613927565b9150509250929050565b600060208284031215613af557600080fd5b6000613b03848285016138a9565b91505092915050565b600060208284031215613b1e57600080fd5b6000613b2c848285016138be565b91505092915050565b600060208284031215613b4757600080fd5b6000613b5584828501613927565b91505092915050565b60008060408385031215613b7157600080fd5b6000613b7f85828601613927565b9250506020613b908582860161387f565b9150509250929050565b60008060008060808587031215613bb057600080fd5b6000613bbe87828801613927565b9450506020613bcf8782880161387f565b9350506040613be087828801613927565b9250506060613bf187828801613927565b91505092959194509250565b60008060408385031215613c1057600080fd5b6000613c1e85828601613927565b925050602083013567ffffffffffffffff811115613c3b57600080fd5b613c47858286016138fd565b9150509250929050565b60008060008060008060c08789031215613c6a57600080fd5b6000613c7889828a01613927565b965050602087013567ffffffffffffffff811115613c9557600080fd5b613ca189828a016138fd565b955050604087013567ffffffffffffffff811115613cbe57600080fd5b613cca89828a016138fd565b9450506060613cdb89828a01613927565b935050608087013567ffffffffffffffff811115613cf857600080fd5b613d0489828a016138fd565b92505060a087013567ffffffffffffffff811115613d2157600080fd5b613d2d89828a016138fd565b9150509295509295509295565b60008060408385031215613d4d57600080fd5b6000613d5b85828601613927565b9250506020613d6c85828601613927565b9150509250929050565b6000613d828383613da6565b60208301905092915050565b6000613d9a8383614428565b60208301905092915050565b613daf81614c9a565b82525050565b613dbe81614c9a565b82525050565b6000613dcf82614b39565b613dd98185614b7f565b9350613de483614b19565b8060005b83811015613e15578151613dfc8882613d76565b9750613e0783614b65565b925050600181019050613de8565b5085935050505092915050565b6000613e2d82614b44565b613e378185614b90565b9350613e4283614b29565b8060005b83811015613e73578151613e5a8882613d8e565b9750613e6583614b72565b925050600181019050613e46565b5085935050505092915050565b613e8981614cac565b82525050565b613e9881614cac565b82525050565b6000613ea982614b4f565b613eb38185614ba1565b9350613ec3818560208601614d1d565b613ecc81614ee9565b840191505092915050565b6000613ee282614b5a565b613eec8185614bb2565b9350613efc818560208601614d1d565b613f0581614ee9565b840191505092915050565b6000613f1b82614b5a565b613f258185614bc3565b9350613f35818560208601614d1d565b613f3e81614ee9565b840191505092915050565b6000613f5482614b5a565b613f5e8185614bd4565b9350613f6e818560208601614d1d565b80840191505092915050565b6000613f87601383614bc3565b9150613f9282614efa565b602082019050919050565b6000613faa601483614bc3565b9150613fb582614f23565b602082019050919050565b6000613fcd603283614bc3565b9150613fd882614f4c565b604082019050919050565b6000613ff0602683614bc3565b9150613ffb82614f9b565b604082019050919050565b6000614013601883614bc3565b915061401e82614fea565b602082019050919050565b6000614036601c83614bc3565b915061404182615013565b602082019050919050565b6000614059602483614bc3565b91506140648261503c565b604082019050919050565b600061407c601983614bc3565b91506140878261508b565b602082019050919050565b600061409f601e83614bc3565b91506140aa826150b4565b602082019050919050565b60006140c2602c83614bc3565b91506140cd826150dd565b604082019050919050565b60006140e5601683614bc3565b91506140f08261512c565b602082019050919050565b6000614108601883614bc3565b915061411382615155565b602082019050919050565b600061412b603883614bc3565b91506141368261517e565b604082019050919050565b600061414e602a83614bc3565b9150614159826151cd565b604082019050919050565b6000614171602983614bc3565b915061417c8261521c565b604082019050919050565b6000614194602e83614bc3565b915061419f8261526b565b604082019050919050565b60006141b7602083614bc3565b91506141c2826152ba565b602082019050919050565b60006141da601483614bc3565b91506141e5826152e3565b602082019050919050565b60006141fd603183614bc3565b91506142088261530c565b604082019050919050565b6000614220602c83614bc3565b915061422b8261535b565b604082019050919050565b6000614243602583614bc3565b915061424e826153aa565b604082019050919050565b6000614266602083614bc3565b9150614271826153f9565b602082019050919050565b6000614289602983614bc3565b915061429482615422565b604082019050919050565b60006142ac602f83614bc3565b91506142b782615471565b604082019050919050565b60006142cf602183614bc3565b91506142da826154c0565b604082019050919050565b60006142f2603183614bc3565b91506142fd8261550f565b604082019050919050565b6000614315602283614bc3565b91506143208261555e565b604082019050919050565b6000610160830160008301516143446000860182614428565b506020830151848203602086015261435c8282613ed7565b915050604083015184820360408601526143768282613ed7565b915050606083015161438b6060860182614428565b50608083015161439e6080860182613da6565b5060a08301516143b160a0860182613e80565b5060c08301516143c460c0860182614428565b5060e08301516143d760e0860182613e80565b506101008301516143ec610100860182613e80565b506101208301518482036101208601526144068282613ed7565b91505061014083015161441d610140860182614428565b508091505092915050565b61443181614d04565b82525050565b61444081614d04565b82525050565b60006144528285613f49565b915061445e8284613f49565b91508190509392505050565b600060208201905061447f6000830184613db5565b92915050565b600060808201905061449a6000830187613db5565b6144a76020830186613db5565b6144b46040830185614437565b81810360608301526144c68184613e9e565b905095945050505050565b60006060820190506144e66000830186613db5565b81810360208301526144f88185613f10565b90506145076040830184613e8f565b949350505050565b60006060820190506145246000830186613db5565b6145316020830185614437565b61453e6040830184614437565b949350505050565b600060208201905081810360008301526145608184613dc4565b905092915050565b600060208201905081810360008301526145828184613e22565b905092915050565b600060208201905061459f6000830184613e8f565b92915050565b600060208201905081810360008301526145bf8184613f10565b905092915050565b600060608201905081810360008301526145e18186613f10565b905081810360208301526145f58185613f10565b90506146046040830184614437565b949350505050565b6000602082019050818103600083015261462581613f7a565b9050919050565b6000602082019050818103600083015261464581613f9d565b9050919050565b6000602082019050818103600083015261466581613fc0565b9050919050565b6000602082019050818103600083015261468581613fe3565b9050919050565b600060208201905081810360008301526146a581614006565b9050919050565b600060208201905081810360008301526146c581614029565b9050919050565b600060208201905081810360008301526146e58161404c565b9050919050565b600060208201905081810360008301526147058161406f565b9050919050565b6000602082019050818103600083015261472581614092565b9050919050565b60006020820190508181036000830152614745816140b5565b9050919050565b60006020820190508181036000830152614765816140d8565b9050919050565b60006020820190508181036000830152614785816140fb565b9050919050565b600060208201905081810360008301526147a58161411e565b9050919050565b600060208201905081810360008301526147c581614141565b9050919050565b600060208201905081810360008301526147e581614164565b9050919050565b6000602082019050818103600083015261480581614187565b9050919050565b60006020820190508181036000830152614825816141aa565b9050919050565b60006020820190508181036000830152614845816141cd565b9050919050565b60006020820190508181036000830152614865816141f0565b9050919050565b6000602082019050818103600083015261488581614213565b9050919050565b600060208201905081810360008301526148a581614236565b9050919050565b600060208201905081810360008301526148c581614259565b9050919050565b600060208201905081810360008301526148e58161427c565b9050919050565b600060208201905081810360008301526149058161429f565b9050919050565b60006020820190508181036000830152614925816142c2565b9050919050565b60006020820190508181036000830152614945816142e5565b9050919050565b6000602082019050818103600083015261496581614308565b9050919050565b60006020820190508181036000830152614986818461432b565b905092915050565b60006020820190506149a36000830184614437565b92915050565b6000610160820190506149bf600083018e614437565b81810360208301526149d1818d613f10565b905081810360408301526149e5818c613f10565b90506149f4606083018b614437565b614a01608083018a613db5565b614a0e60a0830189613e8f565b614a1b60c0830188614437565b614a2860e0830187613e8f565b614a36610100830186613e8f565b818103610120830152614a498185613f10565b9050614a59610140830184614437565b9c9b505050505050505050505050565b6000604082019050614a7e6000830185614437565b614a8b6020830184614437565b9392505050565b6000614a9c614aad565b9050614aa88282614d82565b919050565b6000604051905090565b600067ffffffffffffffff821115614ad257614ad1614eba565b5b614adb82614ee9565b9050602081019050919050565b600067ffffffffffffffff821115614b0357614b02614eba565b5b614b0c82614ee9565b9050602081019050919050565b6000819050602082019050919050565b6000819050602082019050919050565b600081519050919050565b600081519050919050565b600081519050919050565b600081519050919050565b6000602082019050919050565b6000602082019050919050565b600082825260208201905092915050565b600082825260208201905092915050565b600082825260208201905092915050565b600082825260208201905092915050565b600082825260208201905092915050565b600081905092915050565b6000614bea82614d04565b9150614bf583614d04565b9250827fffffffffffffffffffffffffffffffffffffffffffffffffffffffffffffffff03821115614c2a57614c29614e2d565b5b828201905092915050565b6000614c4082614d04565b9150614c4b83614d04565b925082614c5b57614c5a614e5c565b5b828204905092915050565b6000614c7182614d04565b9150614c7c83614d04565b925082821015614c8f57614c8e614e2d565b5b828203905092915050565b6000614ca582614ce4565b9050919050565b60008115159050919050565b60007fffffffff0000000000000000000000000000000000000000000000000000000082169050919050565b600073ffffffffffffffffffffffffffffffffffffffff82169050919050565b6000819050919050565b82818337600083830152505050565b60005b83811015614d3b578082015181840152602081019050614d20565b83811115614d4a576000848401525b50505050565b60006002820490506001821680614d6857607f821691505b60208210811415614d7c57614d7b614e8b565b5b50919050565b614d8b82614ee9565b810181811067ffffffffffffffff82111715614daa57614da9614eba565b5b80604052505050565b6000614dbe82614d04565b91507fffffffffffffffffffffffffffffffffffffffffffffffffffffffffffffffff821415614df157614df0614e2d565b5b600182019050919050565b6000614e0782614d04565b9150614e1283614d04565b925082614e2257614e21614e5c565b5b828206905092915050565b7f4e487b7100000000000000000000000000000000000000000000000000000000600052601160045260246000fd5b7f4e487b7100000000000000000000000000000000000000000000000000000000600052601260045260246000fd5b7f4e487b7100000000000000000000000000000000000000000000000000000000600052602260045260246000fd5b7f4e487b7100000000000000000000000000000000000000000000000000000000600052604160045260246000fd5b6000601f19601f8301169050919050565b7f4c616e64206e6f74207265676973746572656400000000000000000000000000600082015250565b7f4c616e64206973206e6f7420666f722073616c65000000000000000000000000600082015250565b7f4552433732313a207472616e7366657220746f206e6f6e20455243373231526560008201527f63656976657220696d706c656d656e7465720000000000000000000000000000602082015250565b7f4f776e61626c653a206e6577206f776e657220697320746865207a65726f206160008201527f6464726573730000000000000000000000000000000000000000000000000000602082015250565b7f4469737075746520616c7265616479207265736f6c7665640000000000000000600082015250565b7f4552433732313a20746f6b656e20616c7265616479206d696e74656400000000600082015250565b7f4552433732313a207472616e7366657220746f20746865207a65726f2061646460008201527f7265737300000000000000000000000000000000000000000000000000000000602082015250565b7f4552433732313a20617070726f766520746f2063616c6c657200000000000000600082015250565b7f43616e6e6f74207472616e73666572206d6f72746761676564206c616e640000600082015250565b7f4552433732313a206f70657261746f7220717565727920666f72206e6f6e657860008201527f697374656e7420746f6b656e0000000000000000000000000000000000000000602082015250565b7f4c616e6420494420616c72656164792065786973747300000000000000000000600082015250565b7f4c616e642069732063757272656e746c79206c65617365640000000000000000600082015250565b7f4552433732313a20617070726f76652063616c6c6572206973206e6f74206f7760008201527f6e6572206e6f7220617070726f76656420666f7220616c6c0000000000000000602082015250565b7f4552433732313a2062616c616e636520717565727920666f7220746865207a6560008201527f726f206164647265737300000000000000000000000000000000000000000000602082015250565b7f4552433732313a206f776e657220717565727920666f72206e6f6e657869737460008201527f656e7420746f6b656e0000000000000000000000000000000000000000000000602082015250565b7f45524337323155524953746f726167653a2055524920736574206f66206e6f6e60008201527f6578697374656e7420746f6b656e000000000000000000000000000000000000602082015250565b7f4552433732313a206d696e7420746f20746865207a65726f2061646472657373600082015250565b7f496e73756666696369656e74207061796d656e74000000000000000000000000600082015250565b7f45524337323155524953746f726167653a2055524920717565727920666f722060008201527f6e6f6e6578697374656e7420746f6b656e000000000000000000000000000000602082015250565b7f4552433732313a20617070726f76656420717565727920666f72206e6f6e657860008201527f697374656e7420746f6b656e0000000000000000000000000000000000000000602082015250565b7f426964206d75737420626520686967686572207468616e2063757272656e742060008201527f7072696365000000000000000000000000000000000000000000000000000000602082015250565b7f4f776e61626c653a2063616c6c6572206973206e6f7420746865206f776e6572600082015250565b7f4552433732313a207472616e73666572206f6620746f6b656e2074686174206960008201527f73206e6f74206f776e0000000000000000000000000000000000000000000000602082015250565b7f4552433732314d657461646174613a2055524920717565727920666f72206e6f60008201527f6e6578697374656e7420746f6b656e0000000000000000000000000000000000602082015250565b7f4552433732313a20617070726f76616c20746f2063757272656e74206f776e6560008201527f7200000000000000000000000000000000000000000000000000000000000000602082015250565b7f4552433732313a207472616e736665722063616c6c6572206973206e6f74206f60008201527f776e6572206e6f7220617070726f766564000000000000000000000000000000602082015250565b7f4f6e6c79206f776e65722063616e20706572666f726d2074686973206163746960008201527f6f6e000000000000000000000000000000000000000000000000000000000000602082015250565b6155b681614c9a565b81146155c157600080fd5b50565b6155cd81614cac565b81146155d857600080fd5b50565b6155e481614cb8565b81146155ef57600080fd5b50565b6155fb81614d04565b811461560657600080fd5b5056fea26469706673582212209c0a553e960fb8970acff386529cfc8e1cadc669fdbcf705c266f7d65b23369f64736f6c63430008040033",
  "immutableReferences": {},
  "source": "// SPDX-License-Identifier: MIT\r\npragma solidity ^0.8.4;\r\n\r\nimport \"@openzeppelin/contracts/token/ERC721/ERC721.sol\";\r\nimport \"@openzeppelin/contracts/token/ERC721/extensions/ERC721URIStorage.sol\";\r\nimport \"@openzeppelin/contracts/access/Ownable.sol\";\r\nimport \"@openzeppelin/contracts/utils/Counters.sol\";\r\n\r\ncontract LandRegistry is ERC721URIStorage, Ownable {\r\n    using Counters for Counters.Counter;\r\n    Counters.Counter private _landIdCounter;\r\n    \r\n    struct Land {\r\n        uint256 id;\r\n        string ownerName;\r\n        string location;\r\n        uint256 area;\r\n        address owner;\r\n        bool registered;\r\n        uint256 price;\r\n        bool isForSale;\r\n        bool isMortgaged;\r\n        string geoTag;\r\n        uint256 leaseExpiry;\r\n    }\r\n    \r\n    struct Lease {\r\n        address lessee;\r\n        uint256 leaseEnd;\r\n        uint256 rent;\r\n    }\r\n    \r\n    struct Dispute {\r\n        address complainant;\r\n        string reason;\r\n        bool resolved;\r\n    }\r\n    \r\n    mapping(uint256 => Land) public lands;\r\n    mapping(uint256 => address[]) public ownershipHistory;\r\n    mapping(uint256 => Lease) public leases;\r\n    mapping(uint256 => Dispute) public disputes;\r\n    mapping(address => uint256[]) public userLands;\r\n    \r\n    event LandRegistered(uint256 indexed landId, string ownerName, string location, uint256 area, address indexed owner);\r\n    event OwnershipTransferred(uint256 indexed landId, address indexed oldOwner, address indexed newOwner);\r\n    event LandListedForSale(uint256 indexed landId, uint256 price);\r\n    event LandLeased(uint256 indexed landId, address indexed lessee, uint256 leaseEnd, uint256 rent);\r\n    event DisputeRaised(uint256 indexed landId, address indexed complainant, string reason);\r\n    event DisputeResolved(uint256 indexed landId);\r\n    event BidPlaced(uint256 indexed landId, address indexed bidder, uint256 amount);\r\n    event SaleFinalized(uint256 indexed landId, address indexed buyer, uint256 price);\r\n    \r\n    modifier onlyLandOwner(uint256 _id) {\r\n        require(ownerOf(_id) == msg.sender, \"Only owner can perform this action\");\r\n        _;\r\n    }\r\n    \r\n    constructor() ERC721(\"LandRegistryNFT\", \"LAND\") {}\r\n    \r\n    function registerLand(uint256 _landId, string memory _ownerName, string memory _location, uint256 _area, string memory _geoTag, string memory _tokenURI) public onlyOwner {\r\n        require(lands[_landId].registered == false, \"Land ID already exists\");\r\n        \r\n        lands[_landId] = Land(_landId, _ownerName, _location, _area, msg.sender, true, 0, false, false, _geoTag, 0);\r\n        _mint(msg.sender, _landId);\r\n        _setTokenURI(_landId, _tokenURI);\r\n        \r\n        ownershipHistory[_landId].push(msg.sender);\r\n        userLands[msg.sender].push(_landId);\r\n        \r\n        emit LandRegistered(_landId, _ownerName, _location, _area, msg.sender);\r\n    }\r\n    \r\n    function transferOwnership(uint256 _id, address _newOwner) public onlyLandOwner(_id) {\r\n        require(lands[_id].registered, \"Land not registered\");\r\n        require(!lands[_id].isMortgaged, \"Cannot transfer mortgaged land\");\r\n        require(block.timestamp > lands[_id].leaseExpiry, \"Land is currently leased\");\r\n        \r\n        _transfer(msg.sender, _newOwner, _id);\r\n        lands[_id].owner = _newOwner;\r\n        ownershipHistory[_id].push(_newOwner);\r\n        userLands[_newOwner].push(_id);\r\n        \r\n        emit OwnershipTransferred(_id, msg.sender, _newOwner);\r\n    }\r\n    \r\n    function leaseLand(uint256 _id, address _lessee, uint256 _duration, uint256 _rent) public onlyLandOwner(_id) {\r\n        leases[_id] = Lease(_lessee, block.timestamp + _duration, _rent);\r\n        lands[_id].leaseExpiry = block.timestamp + _duration;\r\n        emit LandLeased(_id, _lessee, block.timestamp + _duration, _rent);\r\n    }\r\n    \r\n    function raiseDispute(uint256 _id, string memory _reason) public {\r\n        disputes[_id] = Dispute(msg.sender, _reason, false);\r\n        emit DisputeRaised(_id, msg.sender, _reason);\r\n    }\r\n    \r\n    function resolveDispute(uint256 _id) public onlyOwner {\r\n        require(!disputes[_id].resolved, \"Dispute already resolved\");\r\n        disputes[_id].resolved = true;\r\n        emit DisputeResolved(_id);\r\n    }\r\n    \r\n    function listLandForSale(uint256 _id, uint256 _price) public onlyLandOwner(_id) {\r\n        lands[_id].isForSale = true;\r\n        lands[_id].price = _price;\r\n        emit LandListedForSale(_id, _price);\r\n    }\r\n    \r\n    function buyLand(uint256 _id) public payable {\r\n        require(lands[_id].isForSale, \"Land is not for sale\");\r\n        require(msg.value >= lands[_id].price, \"Insufficient payment\");\r\n        \r\n        address previousOwner = lands[_id].owner;\r\n        payable(previousOwner).transfer(msg.value);\r\n        \r\n        lands[_id].isForSale = false;\r\n        lands[_id].price = 0;\r\n        transferOwnership(_id, msg.sender);\r\n        \r\n        emit SaleFinalized(_id, msg.sender, msg.value);\r\n    }\r\n    \r\n    function placeBid(uint256 _id) public payable {\r\n        require(lands[_id].isForSale, \"Land is not for sale\");\r\n        require(msg.value > lands[_id].price, \"Bid must be higher than current price\");\r\n        \r\n        lands[_id].price = msg.value;\r\n        emit BidPlaced(_id, msg.sender, msg.value);\r\n    }\r\n    \r\n    function getLandDetails(uint256 _id) public view returns (Land memory) {\r\n        return lands[_id];\r\n    }\r\n    \r\n    function getOwnershipHistory(uint256 _id) public view returns (address[] memory) {\r\n        return ownershipHistory[_id];\r\n    }\r\n    \r\n    function getUserLands(address _user) public view returns (uint256[] memory) {\r\n        return userLands[_user];\r\n    }\r\n}\r\n",
  "sourcePath": "C:\\Users\\chede appliances\\OneDrive\\Desktop\\Land Registry\\contracts\\LandRegistry.sol",
  "compiler": {
    "name": "solc",
    "version": "0.8.4+commit.c7e474f2.Emscripten.clang"
  },
  "schemaVersion": "3.4.16",
  "updatedAt": "2025-02-02T14:32:04.160Z",
  "networkType": "ethereum",
  "devdoc": {
    "kind": "dev",
    "methods": {
      "approve(address,uint256)": {
        "details": "See {IERC721-approve}."
      },
      "balanceOf(address)": {
        "details": "See {IERC721-balanceOf}."
      },
      "getApproved(uint256)": {
        "details": "See {IERC721-getApproved}."
      },
      "isApprovedForAll(address,address)": {
        "details": "See {IERC721-isApprovedForAll}."
      },
      "name()": {
        "details": "See {IERC721Metadata-name}."
      },
      "owner()": {
        "details": "Returns the address of the current owner."
      },
      "ownerOf(uint256)": {
        "details": "See {IERC721-ownerOf}."
      },
      "renounceOwnership()": {
        "details": "Leaves the contract without owner. It will not be possible to call `onlyOwner` functions anymore. Can only be called by the current owner. NOTE: Renouncing ownership will leave the contract without an owner, thereby removing any functionality that is only available to the owner."
      },
      "safeTransferFrom(address,address,uint256)": {
        "details": "See {IERC721-safeTransferFrom}."
      },
      "safeTransferFrom(address,address,uint256,bytes)": {
        "details": "See {IERC721-safeTransferFrom}."
      },
      "setApprovalForAll(address,bool)": {
        "details": "See {IERC721-setApprovalForAll}."
      },
      "supportsInterface(bytes4)": {
        "details": "See {IERC165-supportsInterface}."
      },
      "symbol()": {
        "details": "See {IERC721Metadata-symbol}."
      },
      "tokenURI(uint256)": {
        "details": "See {IERC721Metadata-tokenURI}."
      },
      "transferFrom(address,address,uint256)": {
        "details": "See {IERC721-transferFrom}."
      },
      "transferOwnership(address)": {
        "details": "Transfers ownership of the contract to a new account (`newOwner`). Can only be called by the current owner."
      }
    },
    "version": 1
  },
  "userdoc": {
    "kind": "user",
    "methods": {},
    "version": 1
  }
}